:020000040000fa
:080000000001040000000000f3
:020000040000fa
:0400080006040000ea
:020000040000fa
:04000c001e040000ce
:020000040000fa
:0400100032040000b6
:020000040000fa
:0400140010040000d4
:020000040000fa
:0400180028040000b8
:020000040000fa
:04001c00ca04000012
:020000040000fa
:04002000ca0400000e
:020000040000fa
:04002400ca0400000a
:020000040000fa
:04002800ca04000006
:020000040000fa
:04002c00ca04000002
:020000040000fa
:04003000ca040000fe
:020000040000fa
:04003400d6030000ef
:020000040000fa
:04003800ca040000f6
:020000040000fa
:04003c00ca040000f2
:020000040000fa
:04004000ca040000ee
:020000040000fa
:04004400ca040000ea
:020000040000fa
:04004800ca040000e6
:020000040000fa
:04004c00ca040000e2
:020000040000fa
:04005000ca040000de
:020000040000fa
:04005400960400000e
:020000040000fa
:040058007804000028
:020000040000fa
:04005c00ca040000d2
:020000040000fa
:04006000ca040000ce
:020000040000fa
:04006400ca040000ca
:020000040000fa
:04006800ca040000c6
:020000040000fa
:04006c00ca040000c2
:020000040000fa
:04007000ca040000be
:020000040000fa
:040074009c030000e9
:020000040000fa
:04007800ca040000b6
:020000040000fa
:04007c00ca040000b2
:020000040000fa
:04008000ca040000ae
:020000040000fa
:04008400ca040000aa
:020000040000fa
:04008800ca040000a6
:020000040000fa
:04008c00ca040000a2
:020000040000fa
:04009000ca0400009e
:020000040000fa
:04009400ca0400009a
:020000040000fa
:04009800ca04000096
:020000040000fa
:04009c00ca04000092
:020000040000fa
:0400a000ca0400008e
:020000040000fa
:0400a400ca0400008a
:020000040000fa
:0400a800ca04000086
:020000040000fa
:0400ac00ca04000082
:020000040000fa
:0400b000ca0400007e
:020000040000fa
:0400b400ca0400007a
:020000040000fa
:0400b800ca04000076
:020000040000fa
:0400bc00ca04000072
:020000040000fa
:0400c000ca0400006e
:020000040000fa
:0400c400ca0400006a
:020000040000fa
:0400c800ca04000066
:020000040000fa
:0400cc00ca04000062
:020000040000fa
:0400d000ca0400005e
:020000040000fa
:0400d400ca0400005a
:020000040000fa
:0400d800ca04000056
:020000040000fa
:0400dc00ca04000052
:020000040000fa
:0400e000ca0400004e
:020000040000fa
:0400e400ca0400004a
:020000040000fa
:0400e800ca04000046
:020000040000fa
:0400ec005a040000b2
:020000040000fa
:0400f0003c040000cc
:020000040000fa
:0400f400ca0400003a
:020000040000fa
:0400f800ca04000036
:020000040000fa
:0400fc00ca04000032
:020000040000fa
:04010000ca0400002d
:020000040000fa
:04010400ca04000029
:020000040000fa
:04010800ca04000025
:020000040000fa
:04010c00ca04000021
:020000040000fa
:04011000ca0400001d
:020000040000fa
:04011400ca04000019
:020000040000fa
:04011800ca04000015
:020000040000fa
:04011c00ca04000011
:020000040000fa
:04012000ca0400000d
:020000040000fa
:04012400ca04000009
:020000040000fa
:04012800ca04000005
:020000040000fa
:04012c00b404000017
:020000040000fa
:04013000ca040000fd
:020000040000fa
:04013400ca040000f9
:020000040000fa
:04013800ca040000f5
:020000040000fa
:04013c00ca040000f1
:020000040000fa
:04014000ca040000ed
:020000040000fa
:04014400ca040000e9
:020000040000fa
:04014800ca040000e5
:020000040000fa
:04014c00ca040000e1
:020000040000fa
:04015000ca040000dd
:020000040000fa
:04015400ca040000d9
:020000040000fa
:04015800ca040000d5
:020000040000fa
:04015c00ca040000d1
:020000040000fa
:04016000ca040000cd
:020000040000fa
:04016400ca040000c9
:020000040000fa
:04016800ca040000c5
:020000040000fa
:04016c00ca040000c1
:020000040000fa
:04017000ca040000bd
:020000040000fa
:04017400ca040000b9
:020000040000fa
:04017800ca040000b5
:020000040000fa
:04017c00ca040000b1
:020000040000fa
:04018000ca040000ad
:020000040000fa
:04018400ca040000a9
:020000040000fa
:04018800ca040000a5
:020000040000fa
:04018c00ca040000a1
:020000040000fa
:04019000ca0400009d
:020000040000fa
:04019400ca04000099
:020000040000fa
:04019800ca04000095
:020000040000fa
:04019c00ca04000091
:020000040000fa
:0401a000ca0400008d
:020000040000fa
:0401a400ca04000089
:020000040000fa
:0401a800ca04000085
:020000040000fa
:0401ac00ca04000081
:020000040000fa
:0401b000ca0400007d
:020000040000fa
:0401b400ca04000079
:020000040000fa
:0401b800ca04000075
:020000040000fa
:0401bc00ca04000071
:020000040000fa
:0401c000ca0400006d
:020000040000fa
:0401c400ca04000069
:020000040000fa
:0401c800ca04000065
:020000040000fa
:0401cc00ca04000061
:020000040000fa
:0401d000ca0400005d
:020000040000fa
:0401d400ca04000059
:020000040000fa
:0401d800ca04000055
:020000040000fa
:0401dc00ca04000051
:020000040000fa
:0401e000ca0400004d
:020000040000fa
:0401e400ca04000049
:020000040000fa
:0401e800ca04000045
:020000040000fa
:0401ec00ca04000041
:020000040000fa
:0401f000ca0400003d
:020000040000fa
:0401f400ca04000039
:020000040000fa
:0401f800ca04000035
:020000040000fa
:0401fc00ca04000031
:020000040000fa
:100200004f5f21000e7f24000e01880000000000d7
:10021000000020000000e000020032000001200089
:1002200020028800140007002a0207000000e000f6
:1002300003003a00401124000100200002003700b2
:100240000000200001002000810f7000010032003a
:1002500014000700000020000000e000020032004f
:100260000000020000000000f0d0020000000000ca
:100270000040da000000fe004440a90000d4200045
:100280000000e00003003200002020009001880000
:100290004440a800000006008a1f78008b1f7800e9
:1002a00000000600a1028800800478000000eb0036
:1002b0001f003700e284440054a0b4009905ba003e
:1002c000e284440054a0b4009906ba00e2844400d9
:1002d00054a0b4000006eb00476fde00fd07b2003b
:1002e000ae018800636ce10003003a00eaff0700fa
:1002f0000000eb000e003700606ce10008003a00df
:10030000004deb000a05e800020039003420ec0043
:100310000af0a0008b05e900f9ff3e000400370059
:100320006168e100010032000086eb000b0007006d
:1003300019c7ba001905ba000e04e00003003a001c
:100340000a00e000dbff3a0000000600fe07b200f2
:10035000ae0288008a047800f5ff37000cd0a300b5
:10036000e20f4d001c00390089027800354dba00bb
:100370000a05e800020039003420ec000af0a00071
:100380008b05e9000f003200254dba000a05e80090
:10039000020039003420ec000af0a0008b05e900cf
:1003a000080032000c00e0000600320015cdba0053
:1003b0000a05e800020039003420ec000af0a00031
:1003c0008b05e9008984e80054a0b4000b00e0002c
:1003d000e2ff3a00000006009902ba00055d7800cd
:1003e0008b05e900f7ff3200c82ade00055d7800c2
:1003f0008b05e900f3ff32000c00e000f1ff320052
:1004000019ddba00eeff3700489604000000000036
:1004100086cd0400000000007acb0400000000003c
:100420007e6d04000000000084c204000000000093
:10043000bcc104000000000090cb040000000000dc
:10044000a6cb040000000000c2b8040000000000b9
:10045000b66a040000000000a4ce04000000000002
:100460005aca04000000000016ad0400000000009d
:10047000a0c60400000000005e810400000000002f
:1004800098cd040000000000cecd04000000000064
:10049000b4ce040000000000e0cd04000000000025
:1004a000c4ce040000000000d66e0400000000006e
:1004b0007ccf040000000000fcd00400000000001d
:1004c0005ec8040000000000aac204000000000092
:1004d0008aca040000000000aaa90400000000006d
:1004e00072ca04000000000006d1040000000000f1
:1004f00010d1040000000000facc0400000000004d
:1005000072c7040000000000eaca040000000000f6
:100510004ab00400000000005cb5040000000000c8
:100520000ecd04000000000072be040000000000b8
:10053000b8cf040000000000c4cf04000000000099
:10054000d0cf040000000000dccf04000000000059
:10055000e8cf040000000000f4cf04000000000019
:1005600000d0040000000000d2ca04000000000017
:1005700034c20400000000002ed10400000000007e
:1005800038d104000000000024d104000000000065
:100590000ec104000000000070c90400000000004b
:1005a0001ad10400000000008ac904000000000005
:1005b000a4c9040000000000bec90400000000003f
:1005c00090c7040000000000f0d10400000000000b
:1005d0000cd0040000000000f2c90400000000007c
:1005e000a8bd040000000000cabf04000000000015
:1005f000d6be04000000000060d00400000000002f
:1006000056d10400000000006cd00400000000007f
:10061000b2c804000000000026ca04000000000068
:10062000e0ba04000000000054bb04000000000019
:100630001abb040000000000c0d00400000000004d
:10064000b4d00400000000005cc5040000000000fd
:10065000eac8040000000000b4b604000000000076
:10066000d6bc04000000000042d1040000000000dd
:1006700018d00400000000006abc04000000000064
:1006800004cf04000000000024d00400000000009b
:1006900030d0040000000000e4ce040000000000a0
:1006a00012cf040000000000fe9c040000000000c7
:1006b000bc99040000000000d853040000000000b2
:1006c0005e4a0400000000006ea20400000000006a
:1006d0005ece0400000000004acf040000000000cd
:1006e000d8d00400000000008ec304000000000009
:1006f00068c3040000000000d00a040000000000ed
:10070000fc0a0400000000000012040000000000c9
:100710003c13040000000000681304000000000007
:10072000ae13040000000000000004000000000000
:10073000ac250400000000003600f800809fbe00d9
:10074000829fbe00849fbe00869fbe000000fa000c
:1007500050048000680060000000e0000c003200df
:100760008a60a900813380000000210000806000c1
:100770000000e000060032007186a900c04480003d
:100780000000e00002003200c044800000000100d0
:100790000080fa004f03be004f02be004f01be00b2
:1007a0004f00be003600f900004006003600f80099
:1007b000809fbe00829fbe00849fbe00869fbe00b9
:1007c0000000fa003eb9020000000000905e210027
:1007d000104078008040e800905e210001487800d9
:1007e000805e210011c0b300014878008860a90034
:1007f0000080fa004f03be004f02be004f01be0052
:100800004f00be003600f900004006003600f80038
:100810008020a9000000eb0018d2020000000000b8
:100820003600f8003ccf0200000000008040a90024
:100830001000200018d20200000000003600f8006e
:100840008060a9002000200018d2020000000000f3
:100850003600f8008080a9003000200018d2020085
:10086000000000003600f8008600a900700020009b
:1008700018d20200000000003600f800809fbe0081
:10088000829fbe00849fbe00869fbe000000fa00cb
:1008900080438000000001000080fa004f03be008a
:1008a0004f02be004f01be004f00be003600f900ef
:1008b000004006003600f800809fbe00829fbe0008
:1008c000849fbe00869fbe000000fa009043800017
:1008d000000001000080fa004f03be004f02be007e
:1008e0004f01be004f00be003600f9000040060078
:1008f0003600f800809fbe00829fbe00849fbe002d
:10090000869fbe000000fa006041800000000100e8
:100910000080fa004f03be004f02be004f01be0030
:100920004f00be003600f900004006003600f80017
:10093000809fbe00829fbe00849fbe00869fbe0037
:100940000000fa0070418000000001000080fa0001
:100950004f03be004f02be004f01be004f00be005d
:100960003600f90000400600801f78000000fa0001
:10097000d01c8000620060000000e0000100320036
:100980009a23a9009020a9000080fa004f00780067
:10099000004006000040da000000fe000001780080
:1009a000a001e20002003500a061a800a1e1a800ba
:1009b000b00c8000c10c80000200e0000100320099
:1009c0000089be00000006000a00fa005100200065
:1009d000b1bf9f00c0bf9f006a8057008712070009
:1009e0005fb897000080fa0000000600889fbe00f4
:1009f0008004780090af80000000e00004003a001e
:100a00000f0007000084eb000000e0000800350044
:100a100098af80000900e0000500320009004400a2
:100a2000070007000000e00001003d000084eb002b
:100a3000080078004f04be0000000600000005001a
:100a4000800078000100e00003003a000000200070
:100a500090af8800000005000080eb00020020003d
:100a6000828f500002003e0091af88000000eb0032
:100a7000000006000a00fa002007980031079800dd
:100a8000420798000000eb00000f7800be009000c5
:100a900011079800080037001e00900010407800f1
:100aa0009e0090008100e80011079800d6bc02006b
:100ab000000000001e0fe8009e0078004e0090002d
:100ac000808f5000f4ff39001e0078000080fa008b
:100ad00000000600000005000001be001f00070026
:100ae0000470a70003f0a1006509b10016003200f0
:100af0000d0035006828e10006003500f0ff2f00ea
:100b0000f1ff27000300e00013003b000100280074
:100b10000000050000004000818048008502e900d7
:100b2000fcff3a0008003700f88f420002003c004a
:100b30008000eb00000005008100d1000080d300a0
:100b40008502e800fcff3a000300e00002003b00e1
:100b500060001000e080180000000600c70ade00f8
:100b6000f107b200f50fb20008003200e1cf4200f9
:100b7000020032000170a00024000500810f700007
:100b8000010032000408050044000500810f7000d8
:100b900002003a00140005008502e9000000400050
:100ba00081c04800fcff3b000170a000240005004c
:100bb0006022b800060220000000d0008180d20030
:100bc0000482d2008582d2000000a00002025200fe
:100bd00083825a00030031000202420083824a00ed
:100be0000000a1000603e900f3ff3a000000060040
:100bf000efff07000400be000000060006182800f2
:100c000057c527000202430083824b0000004300c7
:100c100081804b00800f5200818f5a0003003c00fe
:100c200004005000858058000e1337000000520069
:100c300081805a000b13070001f0a200000006009b
:100c40000900370030427800b1417800834f5200ec
:100c50000400320010002000060031000080eb008c
:100c6000000006000201e9000200e000f5ff3a0082
:100c70000000eb0000000600800178000200370051
:100c8000b15978000201e9000200e000fcff3a00df
:100c90000000060000027800808f50000c00310038
:100ca00082814000830f5000090031008200400023
:100cb00002003700c36078000201e9000200e00092
:100cc000fcff3a0000000600315a78000201e900fa
:100cd0000200e000fcff3a000000060080017800fe
:100ce00002003700815978000201e9000200e000ab
:100cf000fcff3a00000006001000fa00889fbe00ca
:100d00008a9fbe008c9fbe0000067800cc01900038
:100d1000c2002000110009008201d8000001780003
:100d200044ff2f000492b9008481410002003b007f
:100d3000ec8141000201e900dc0690000200e000c5
:100d400007003d0004002800020252000080eb0072
:100d50008080eb00848f560009003d006d00370055
:100d60000200e00006003200f4ff270002025200f9
:100d70000080eb008080eb008d0f52006500350095
:100d80008d064100830078000d0078007101070096
:100d90000000e9003c029000cfa2de00612bb90008
:100da000cf80de00040440008584480006854800aa
:100db00087854800e8b79f00f9b79f008abf9f006a
:100dc0009bbf9f002c009000cf80de006109b9001e
:100dd00004e12000050020006033b8005a14070029
:100de0000205be000004be001c009000cf80de00a3
:100df0006109b900c4032000050020006033b80079
:100e0000511407000002440081824c0002034d008f
:100e100083834d001c007800cf80de000404400076
:100e20008584480006854800878548006168b900c8
:100e30006109b90004382300151e20006033b80092
:100e4000411407000002440081824c0002034d005f
:100e500083834d00a4b79f00b5b79f00c6b79f001e
:100e6000d7b79f0004182500150020006033b80094
:100e70006fb09700ffb097000fb997009fb9970028
:100e8000311407002fb29700bfb297004fb39700fd
:100e9000dfb397000004420081844a0002054b0042
:100ea00083854b000800be000a01be005a120700ed
:100eb0006011b8002a120700000178000080eb00e2
:100ec0008080eb000200e0001200350000182800ce
:100ed00051c5270008044000898448008c08900010
:100ee0000801be000c007800350107000c089000d6
:100ef0000000e00004003400001f2f00f1ff2f006d
:100f000008044000898448002104070000005400c0
:100f100081805c004f06be004f05be004f04be003e
:100f20000080fa00000006000102210043080700cb
:100f3000800078000080eb000100e0000400350034
:100f400001022100a0002000eb0307004f80de001b
:100f500000000600020037000304e0000600320033
:100f60000001780002007800b041780081cf510084
:100f7000f9ff3a00010037000001eb0002007800a1
:100f800000000600020037000204e0000b003200ff
:100f9000810178000002780030417800b14f5100a3
:100fa000f9ff32001000200014427800934f5200e5
:100fb000030031000080eb00000006000000eb00a1
:100fc0000000060000017800b14178000359780064
:100fd0000304e000fcff3a000000060080007800f7
:100fe000010178003104e000fdff3a0000005100eb
:100ff0000000060080017800020037008459780064
:101000000201e9000200e0000600320031427800ef
:101010000404e000f9ff3a00020037008059eb00b9
:101020000201e9000200e000fcff3a0000000600b7
:10103000889fbe0081047800194478000804e0000d
:101040000e00320006003700d24178000304e000b1
:101050000a003200d1cf1100fbff32000000e8008f
:101060008800fb00bbff07000000e0000300320027
:101070000901780080007800f3ff37004f04be00bc
:1010800000000600889fbe00810478000000e00098
:1010900002003a00d8ae800001003700000478005a
:1010a0000800be0035090700000444001804e000f1
:1010b00004003a00805d2100d0ae88000004eb00ff
:1010c000070037000800be001109070000004400b7
:1010d0001004e000010032000058eb00d0ae8800a0
:1010e000080078004f04be0000000600ee874700ad
:1010f000889fbe008a9fbe008c9fbe008e1f780016
:10110000f0b79f000106780082057800000478009f
:10111000080578000a047800b84678000d00fb0046
:10112000660307000000e000f9ff3a00d0c2b300f8
:1011300080cf56000300320000c0e90080cf560087
:1011400002003a000a05e8000100370080467800f6
:101150000b00e00005003500e18f55000300320070
:1011600040022000808f5500060034006044b80023
:101170000c00e000700032007fb09700000e780095
:101180006d0037000b00e0000e003200f08f5500bc
:101190001a003a0000c3b3009a4f100017003a003b
:1011a0001a40900081c7b300814f50000300320005
:1011b00081c5b300814f500010003a000a85e80055
:1011c0000e003700ab00200000c3b3009a4f1000a0
:1011d0000a003a001a40900081c7b300814f5000c6
:1011e000040032008b00200081c5b300814f500005
:1011f00002003a000a85e8000b0120000a0078008e
:10120000000278000400780001c3b300b0cf1000e2
:10121000fbff3200040778006044b800b4b79f00b9
:101220000d003700c122210081405000c1ef9f0016
:101230006159b9000800be00691207004fea970023
:101240000401fb00cf91de00c8b79f00d9b79f0013
:1012500002044000838448008e0278003e00fb00b8
:1012600085bf9f001d0307000b01780080007800f8
:10127000c02221009c0807008fba97000000e00000
:10128000e8ff3a003fb29700850f550005003a008d
:101290006044b8000c00e00027003200ffb2970065
:1012a00024003700048252001025210060c07d0018
:1012b0000000fb00000252001700330011003a004a
:1012c0004fe997000200fb00cf80de0000005400d1
:1012d00081805c00800f5400818f5c000900390020
:1012e0006159b90085bf9f0031fe07008fba970092
:1012f0004fb19700dfb19700820f5000838f5800e5
:101300000500320020022000e0ae88000084eb00df
:101310008084eb0005003700d0c2b30080cf5600b8
:1013200002003a0060041400e0841c000c00e0009d
:1013300001003200050e78000800be004f0778005b
:101340004f06be004f05be004f04be00ef00b100c7
:101350000000060080027800010378000500e0002c
:10136000030034000501e9004291de000900370066
:101370000001eb00e38f420006003d00e481120013
:1013800042002000110009008201d800000178000d
:101390000201e80063826200a336210004003a00e3
:1013a000233821000500e00001003a00a3362100a7
:1013b00086004300818141001300410000000600c7
:1013c000ea874700889fbe008a9fbe008c9fbe00b0
:1013d0008e1f7800000478000ae82700ab3a280046
:1013e0000205450083854d00dab79f00ebb79f00eb
:1013f0000800e00001003a0008592100010c9800a3
:1014000002182500130020000a00be00e8fd0700b6
:101410000006be0061004000e0804800720020002d
:10142000030020006711070060049800d216200016
:10143000030020000c00be00561007000001be0093
:101440000007eb008e0451008000eb0009007800db
:10145000f2b79f0083bf9f00beff07000002780025
:10146000d016200000c8b900cfa2de000000420064
:1014700081804a000e07e8007fb197008fb997007e
:10148000800f5600818f5e00eeff3500000656008b
:1014900081865e00590498007c0498006380640093
:1014a000a136210004003a00213821000900e000a3
:1014b00001003a00a1362100f6804000c000200063
:1014c0000000e9000101780021027800cfa2de00cf
:1014d000840f5600858f5e00f9ff350040049800a8
:1014e0000c06e800120656003c049800021825007d
:1014f000130020000a00be00bdfd07000005be006d
:1015000002e1200003002000a9fd0700200498004c
:1015100002e12000030020000a00be00b4fd070025
:101520000005be00c203200003002000a0fd07004c
:1015300010049800c2032000030020000a00be002f
:10154000abfd0700000c7800080890000000e000e8
:1015500005003d0008007800aa030700000c980071
:101560000000e00007003c00080078004f0778000a
:101570004f06be004f05be004f04be00af00b100d5
:10158000000006000ae120000b0020005fb0970079
:10159000efb097000005450081854d0098ff3700aa
:1015a000889fbe0000047800010078008204780063
:1015b0008801780009017800110020001907070050
:1015c000890f5000010032000004eb000800780091
:1015d0004f04be00000006000000fa00e88157003a
:1015e0004fb997000102210000ad20001400070050
:1015f0000080fa0000000600889fbe00000478000a
:1016000001007800820478008801780009017800e0
:101610001100200003070700890f5000010032006d
:101620000004eb00080078004f04be000000060034
:101630000001be0001022100c0af20000000370001
:101640006200fa00889fbe008a1f780000057800bb
:1016500081047800020478008300780080f92f006c
:101660000f004000020407009a979f00a9979f006f
:101670000000eb00b09f9f001885fb008a04fb0070
:101680000a05ea004f55de0050022000808f54000a
:101690000d003200e10f55000b003a000a017800fe
:1016a000880078002f9097009f9197000300010019
:1016b000a0979f000000e0008e0032003f98970046
:1016c0000000e800b09f9f000a0444005002200080
:1016d000808f5400040032000900e000e6ff3a0069
:1016e0003f989700840037000000eb00909f9f0018
:1016f000809f9f00f0979f00e0979f00d0979f00ea
:10170000c0979f00070037000157210001005000db
:10171000000040004156210061007800df989700ea
:1017200001007000d09f9f008804780009047800b1
:10173000384578008a00fb000057210005fe0700ad
:101740000000e000f0ff3a00a1c2b300814f550055
:101750000e003a00cf8897000180e900c08f9f00fb
:1017600010007800c09f9f000000e00005003d00d1
:101770000000ea00c09f9f005f9897000020a00033
:10178000d09f9f000904e8000f003700c09f9f0012
:101790000000eb0005003700f2ff2700820f500029
:1017a000020032006a01b90002804000090478009a
:1017b00088047800b900fb000103b100e98f5000f4
:1017c000f5ff3600c09f9f00e0c2b300984f1000a5
:1017d000020032000080eb0019003700a0c2b30005
:1017e000d84f100007003a00cf8897000180e90029
:1017f000c08f9f0010007800a09f9f000804e800a1
:10180000100037000000eb00a09f9f0088007800c8
:1018100005003700f3ff2700830f5000020032005d
:101820006a02b900040041000104780088007800d1
:101830003101fb000203b100e90f5100f5ff360052
:10184000a09f9f00984478008900fb00c0552100ac
:10185000c0fd07000000e000020032000804e800bc
:10186000010037008044eb00c97f9f0080c6b300b1
:1018700080cf540004003a0098cf14000a003a00c8
:101880006640500006003700c0c6b30080cf540049
:1018900005003a0098cf140003003a00654040006c
:1018a000c07f9f000804e800e3fb2f008f81410008
:1018b0001841780081f92f008f804000a0f92f0097
:1018c0000f004000100007000000e00009003a008f
:1018d000e1fb2f008f804000a0f92f000f00400097
:1018e0008e0b07000000e000020035000804e8004d
:1018f00061ff37000080eb004f0578004f04be0009
:101900000080fa0000000600889fbe008a1f780051
:1019100000047800824478000305780070c6b300a4
:1019200080cf540021003c0000c0e90080cf54006b
:10193000d5003d007240500080cf54003c01320081
:101940000d003c006c40500080cf54004f013c0023
:1019500000c0e90080cf5400cb003d0050c2b3006e
:1019600080cf5400460132007c40400080cf5400bc
:1019700046013a00c400370010c6b30080cf5400bf
:10198000c100320004003c006940500080cf540088
:101990003e013a006900370030c6b30080cf5400e2
:1019a000180032000040e8000900370000c7b3000b
:1019b00080cf54001001320008003c0000c0e90054
:1019c00080cf5400d90032005c003c0065405000dc
:1019d00080cf54002d013a000f00370050c7b300ec
:1019e00080cf5400550032006340400080cf540047
:1019f000520032006540500080cf540023013a006d
:101a00000b0137001181e90082087800780090000e
:101a1000127578002301370028609000c2c6b30019
:101a2000824f500007003a00110178006400510015
:101a3000800878001000be004f89de008201780027
:101a40001400370012c7b300824f500003003a0061
:101a5000110278006800520005003700a2c6b300ea
:101a6000824f500006003a009102780068805200d0
:101a7000800878005001be004000be00050037001d
:101a80001180e9008008780010007800cf80de0027
:101a90006109b900009cbe000294be00286290005b
:101aa00085c6b300854f52000d00320025c6b30035
:101ab000854f520004003a000000fb00cf80de009a
:101ac0006109b9000800370045c7b300854f5200cf
:101ad00003003200e6c24200854f520004003a0083
:101ae000cf80de006109b900009cbe000294be00f8
:101af0003802be002803be0078009000d1c2b300b7
:101b0000e00f5200e08f5a00e00f5b00e08f5b00b7
:101b100008003500881090000118a3000200320070
:101b2000b1c2b300030037000108a3005100320026
:101b300001c2b300017578004c00370028609000a6
:101b4000c2c6b300824f500008003a00110378006b
:101b500064005300800878001002be006033b800b3
:101b60000400be000601be001400370012c7b30017
:101b7000824f500003003a009102780068805200c2
:101b800005003700a2c6b300824f500006003a009d
:101b90001103780068005300800878005001be00ef
:101ba0004000be00050037001180e9008008780081
:101bb000100078008000eb006011b800009cbe00af
:101bc0000294be002862900085c6b300854f520083
:101bd0000d00320025c6b300854f520004003a00c4
:101be0000080fb008000eb006011b80008003700a7
:101bf00045c7b300854f520003003200e6c24200e1
:101c0000854f520004003a008000eb006011b800dc
:101c1000009cbe000294be00081090000038a30093
:101c2000140032003800be002801be00e00f500052
:101c3000e08f5800e00f5900e08f59000d0032008e
:101c400080c7b30080cf54000300320080c5b300ca
:101c500080cf540007003a007800900001c3b30021
:101c6000017578000000e800097578000000e800c0
:101c70007004980078009000000545006a04980000
:101c8000894078006700370028619000c0c4b30025
:101c9000804f510006003a0091037800688053009d
:101ca000800878005001be004000be0005003700eb
:101cb0001101780064005100800878001000be0017
:101cc000880e0700009cbe000294be00b800900081
:101cd000780090000100e00002003d00d1c2b30096
:101ce00008003700881090000118a300020032009d
:101cf000b1c2b300030037000108a30004003200a2
:101d000001c2b300017578000000e800700498007b
:101d100078009000000545006a049800894078002a
:101d2000080078002b07070060003700286190004a
:101d3000c3c6b3001180e900834f51002200320076
:101d40000a003c00e4c15100834f510025003200dd
:101d500083c1e800834f510013003200e8c15100f5
:101d6000834f51001e003a000a00370043c7b300fa
:101d7000834f51001b003200e6c14100834f5100e8
:101d800018003200e9c15100834f510014003a009d
:101d9000050037008008780010007800485c90004b
:101da000084878004100370080087800100078006b
:101db000680a9000cfa2de00612bb9000498be0033
:101dc0000690be00390037008008780010007800c7
:101dd00068099000cf91de000288be003300370012
:101de0001180e9008008780010007800680c9000ed
:101df000080878002d0037001180e900800878007d
:101e000010007800cf80de006109b900009cbe00a0
:101e10000294be0078009000000545006a04980016
:101e200081c7b300080078000d0907001f003700c4
:101e30001180e90080087800100578006a04980095
:101e4000d80c90000900e00004003d000a00780072
:101e500062fc070080047800070037000901780061
:101e60008000eb000a0078009f0507000000e000fa
:101e7000010032008a045000190c98000b00370052
:101e8000780090000975780006003700780090000f
:101e9000000545000904e00001003a0059c2b30002
:101ea000094d78000000e800700498000000eb0085
:101eb0004f0578004f04be00000006006900e100f5
:101ec000040035006d00e100030034000002b100a1
:101ed00001003200000005001000050080007800bd
:101ee0001104b100030035009101b10001003c0074
:101ef0000050a00000000600889fbe008a1f7800e6
:101f00000004be00c900900069009000808f50005e
:101f10000500390009007800b40507008080eb0057
:101f20000000e000160035000845780049009000e8
:101f300008587800c00498001900780000b8a30081
:101f400004003a0000a8a30007003200ea4f540042
:101f500005003a0009007800fd0307008080eb00cf
:101f60000000e00006003a0000c0200019006000f8
:101f70000200320049009000e00498008a80fb00d3
:101f8000010078004f0578004f04be0000000600f5
:101f90000400fa00889fbe0090a780000000e000c7
:101fa00001003200000001002069800061ae800065
:101fb000808f5000310032001004e00002003a002f
:101fc000f700070020698800668157002100200083
:101fd000206980005f06070000047800a20020004e
:101fe000e8805700080078002c00070070ae8800d9
:101ff00081ae88004fb99700080451005fb997007f
:10200000820f540009003a00d2ae2f00f3ff2f00d8
:10201000820f5000838f5800040035003251200099
:10202000820f5000e08f5800030034006000b800b9
:1020300070ae880081ae880078ae800089ae8000e6
:10204000c2f92f00f3ff2f000800be00510d07005a
:102050008202200003002000e10e0700000444007b
:1020600081844c0060041400e0841c0078ae880079
:1020700089ae88002169800061ae880042fc2f0093
:10208000f3ff2f0070ae800081ae8000d40e0700f9
:102090004f04be000080fa0000000600e6874700fb
:1020a000889fbe008a9fbe008c9fbe008e1f780056
:1020b00080047800010778000e00e00001003a007b
:1020c000728757008005eb00614ab8006158b8007c
:1020d0000006420081864a000c05780064447800be
:1020e0000800fb0082bf9f0074ff07008b05e8001b
:1020f0000fb997000000e000f3ff3a00d0c2b30030
:10210000804f54000300320000c0e900804f5400ab
:1021100002003a000c05e800010037000044780096
:102120008e0078000a007800f0fb07009e0f550033
:1021300001003a00090f78009e8f540003003a0016
:10214000e00f5000e08f58000f003a00b2c2b30019
:10215000824f540004003a00e00f5000e08f580016
:1021600015003d0008003700d2c2b300824f540072
:1021700011003a000200200003002800820f5000e6
:10218000838f58000a00360020022000e0ae88004d
:10219000f0ff2f00f1ff2700d2c2b300824f54009e
:1021a00005003a000000200001002800020037006e
:1021b00060001000e08018004f0778004f06be0056
:1021c0004f05be004f04be006f00b10000000600c6
:1021d000e8874700889fbe008a9fbe008c9fbe0094
:1021e0008e1f7800800078000005eb0019002000a9
:1021f0006109b800020478006a4779000e00fb000c
:10220000e1b79f00f2b79f0083bf9f00460307001e
:10221000efb097007fb197008fb997000000e00002
:1022200046003200614ab900264e21006136b800ee
:102230000e727e00640343006a447c0008727b00d7
:102240000401410085814900020478008904e80006
:102250000a05e800e48f5400e5ff3a0012407800d8
:10226000d1c2b300814f50000300320081c0e900a9
:10227000814f500002003a000204e80001003700dc
:1022800001407800b14e21008048780098407800e5
:102290000101fb000203b1000000eb00e90f510057
:1022a00027003e00c04e21000148780088047800d5
:1022b000d94078000101fb000203b1000000eb00ef
:1022c000e90f51001e003e00d04e21000148780069
:1022d0005900fb00140307000000e0001200320068
:1022e0005a0020006151b900820578006300540053
:1022f000624778000e00fb00f2b79f0083bf9f008b
:10230000090307007fb197000000e0000b003200d6
:102310008e757e008884e900828444000a05e80006
:10232000e80f5500efff3a000000eb001904e00051
:1023300003003a00204e2100010037000000eb00ae
:102340004f0778004f06be004f05be004f04be0089
:102350008f00b10000000600404d2100b7f90700d2
:1023600010af88000000e00007003a00d04d2100c7
:10237000b2f9070010af88000000e0000200320050
:1023800093ff070010af880010af80000000e0004e
:1023900002003a00004e210010af88000000060045
:1023a000881f7800085e21001804e00003003a004e
:1023b000e9ff070020c0b300004c780010af800098
:1023c0004f04780000000600002021007b04370045
:1023d000881f7800685d21001804e00003003a00bf
:1023e000f9ff070020c0b300004c78001000200067
:1023f0004f04780000000600a0ae800057033700ad
:10240000fdff3700f6874700889fbe008a9fbe0009
:102410008c9fbe008e1f780000047800ecff070040
:1024200090a780000000e0000100320000000100e1
:102430001069800091ae8000808f50001c00320037
:102440001004e0000f003a00206980001004e00052
:1024500002003a00d2ff070020698800e2fd2f0049
:102460000f0141003100200020698000390507007c
:10247000106988001004e0000200320021d2200020
:102480008008e90010698000ac040700800478002f
:102490000085eb000900e0006e003200a0ae800075
:1024a0002e030700a9ae88001069800090ae880056
:1024b0008000eb0058009000a6fb07008004780025
:1024c000780090007800b9002801900000014100d8
:1024d00082b79f00d8009000d01620000088b90075
:1024e00061004000e08048004fc9de0000804400e9
:1024f000810049007200200003002000310d070018
:10250000ee024000a4ae80008006eb000005eb0068
:10251000090178008801780047003700648445008d
:102520008004eb0053009000ec407c008180fb00b5
:10253000808f50003f003c00e3804500ecc07800f5
:102540008180fb00b2b79f00e3b79f00d4b79f0024
:10255000c5b79f0096b79f00a7b79f007dfb0700f8
:102560008b80e800ecc078008180fb003fb19700d1
:102570008280500080804000f1b79f006c467f0051
:102580008cf79f00efb197005fb29700cfb2970032
:102590001fb397000c04e000130032000c87fb000f
:1025a0000e875200010747007c002000110009003f
:1025b0000c07d800010778000006eb000e00e000d1
:1025c00001003200670617007fb097000c00400042
:1025d000f0b79f008ff09700e7cf500002003e0059
:1025e00067005000f0b79f007fb697007860b90091
:1025f0008b03e800e6c37b008783fb000080430079
:102600008fb09700808f500012003500e6407c00ac
:10261000e985450066c07d0080cf500002003a0089
:102620000a00e000020032000005eb000100370064
:102630001a0020008d06e800656bb800840578005c
:10264000060678000407780066407a00e14f4000f3
:10265000b2ff3a000a0078004f0778004f06be002c
:102660004f05be004f04be006f01b1000000060020
:102670000108780000000600889fbe000004780072
:102680000100780082047800880178000901780050
:1026900011002000e3020700890f50000100320002
:1026a0000004eb00080078004f04be0000000600a4
:1026b0000000fa00e88157004fb99700010221009d
:1026c000c03321003b0007000080fa000000060034
:1026d000889fbe00000478001800900082047800f3
:1026e000808f5400010036008004780018007800c4
:1026f0000901780060f90700188c44001800900068
:102700008904500019049800080078004f04be00a6
:10271000000006000400fa000100e00003003a0097
:102720000f80e900e0bf9f0002003700e0bf9f007c
:102730008100e900f1bf9f00ec8157002fb997009d
:10274000e4805700803621001a000700efb8970098
:102750008048eb000080fa0000000600881f780027
:10276000020478000801780043f9070008004000df
:102770004f047800000006000000fa00881f78006f
:1027800000047800ea8157003fb99700880078007c
:10279000e03a2100070007000000e00002003500d9
:1027a0008040eb00017478004f0478000080fa004c
:1027b000000006006200fa00889fbe008a1f7800b1
:1027c0000005780081047800020478008300780016
:1027d00080f92f000f004000a5ff07009a979f0087
:1027e000a9979f000000eb00b09f9f001885fb0099
:1027f0008a04fb000a05ea004f55de005002200063
:10280000808f54000d003200e10f55000b003a009c
:102810000a017800880078002f9097009f91970018
:1028200003000100a0979f000000e0008e0032002e
:102830003f9897000000e800b09f9f000a04440002
:1028400050022000808f5400040032000900e00094
:10285000e6ff3a003f989700840037000000eb0045
:10286000909f9f00809f9f00f0979f00e0979f00a0
:10287000d0979f00c0979f0007003700a158210004
:102880000100500000004000e15721006100780085
:10289000df98970001007000d09f9f0088047800a7
:1028a00009047800384578008a00fb00a058210010
:1028b000a8f907000000e000f0ff3a00a1c2b30051
:1028c000814f55000e003a00cf8897000180e90043
:1028d000c08f9f0010007800c09f9f000000e000a4
:1028e00005003d000000ea00c09f9f005f98970030
:1028f0000020a000d09f9f000904e8000f003700cf
:10290000c09f9f000000eb0005003700f2ff27008a
:10291000820f5000020032006a01b90002804000bc
:102920000904780088047800b900fb000103b100b5
:10293000e98f5000f5ff3600c09f9f00e0c2b30052
:10294000984f1000020032000080eb0019003700a1
:10295000a0c2b300d84f100007003a00cf889700fc
:102960000180e900c08f9f0010007800a09f9f00a9
:102970000804e800100037000000eb00a09f9f0053
:102980008800780005003700f3ff2700830f500010
:10299000020032006a02b90004004100010478001c
:1029a000880078003101fb000203b100e90f5100fb
:1029b000f5ff3600a09f9f00984478008900fb0037
:1029c0006057210063f907000000e00002003200b8
:1029d0000804e800010037008044eb00c97f9f0035
:1029e00080c6b30080cf540004003a0098cf140092
:1029f0000a003a006640500006003700c0c6b30027
:102a000080cf540005003a0098cf140003003a002c
:102a100065404000c07f9f000804e8001801fb00eb
:102a2000e3fb2f008f81410081f92f008f80400050
:102a3000a0f92f000f004000100007000000e00088
:102a400009003a00e1fb2f008f804000a0f92f0021
:102a50000f004000310707000000e00002003500d1
:102a60000804e80061ff37000080eb004f057800a4
:102a70004f04be000080fa0000000600889fbe00e0
:102a80008a1f780000047800e0c6b300804f510030
:102a9000c100320015003c006b405000804f5100d7
:102aa000240032000a003c0070405000804f51006a
:102ab000fa00320065404000804f5100680032004b
:102ac00050c2b300804f51000b013a00070137009c
:102ad00040c6b300804f51001b00320065404000eb
:102ae000804f510004013a001700370030c7b3008f
:102af000804f5100e900320007003c006440500064
:102b0000804f5100560032000040e800804f5100d5
:102b1000f9003a00d300370050c7b300804f51008e
:102b20004f00320063404000804f5100f2003a00f5
:102b30004b0037001181e90082087800780090008e
:102b400012417800ea00370028609000c4c6b30044
:102b5000844f500007003a001102780064005200d0
:102b6000800878001002be004fabde0086037800bc
:102b70001100370014c7b300844f50000300320027
:102b8000a4c6b300844f500006003a00110278003a
:102b900068005200800878003002be002003be00aa
:102ba000050037001180e9008008780010027800e5
:102bb000cfa2de00612bb900049cbe000694be00cb
:102bc0002860900081c6b300814f50000d00320094
:102bd00021c6b300814f500004003a000402fb00fc
:102be000cfa2de00612bb9000800370041c7b30057
:102bf000814f500003003200e6c04000814f50007a
:102c000004003a00cfa2de00612bb900049cbe0094
:102c10000694be003802be002803be007800900073
:102c2000d1c2b300e00f5200e08f5a00e00f5b000a
:102c3000e08f5b0008003500881090000118a300a9
:102c400002003200b1c2b300030037000108a30044
:102c50004c00320001c2b300817178004700370098
:102c600028609000c4c6b300844f500006003a00ac
:102c70001102780064005200800878001002be0043
:102c80006033b8001100370014c7b300844f500000
:102c900003003200a4c6b300844f500006003a007f
:102ca0001102780068005200800878003002be00ef
:102cb0002003be00050037001180e900800878007d
:102cc000100278008002eb006033b800049cbe0064
:102cd0000694be002860900081c6b300814f50006a
:102ce0000d00320021c6b300814f500004003a00ad
:102cf0000482fb008002eb006033b800080037005c
:102d000041c7b300814f500003003200e6c04000cd
:102d1000814f500004003a008002eb006033b8009d
:102d2000049cbe000694be00081090000038a3006a
:102d3000140032003802be002803be00e00f52002b
:102d4000e08f5a00e00f5b00e08f5b000d00320067
:102d500080c7b300804f51000300320080c5b3002c
:102d6000804f510007003a007800900001c3b30083
:102d7000817178000000e800827178000000e800ae
:102d800070049800780090008081410063049800ee
:102d9000824078003e00370028619000c3c6b3002f
:102da0001180e900834f5100220032000a003c00ec
:102db000e4c15100834f51002500320083c1e80077
:102dc000834f510013003200e8c15100834f51007e
:102dd0001e003a000a00370043c7b300834f51007a
:102de0001b003200e6c14100834f51001800320041
:102df000e9c15100834f510014003a00050037002b
:102e00008008780010007800485c9000084878003e
:102e1000410037008008780010007800680a9000b0
:102e2000cfa2de00612bb9000498be000690be0060
:102e30003900370080087800100078006809900099
:102e4000cf91de000288be00330037001180e90018
:102e50008008780010007800680c9000080878005e
:102e60002d0037001180e9008008780010027800fa
:102e7000cfa2de00612bb900049cbe000694be0008
:102e800078009000808141006304980081c7b300fe
:102e900008007800f20407001f0037001180e900e5
:102ea00080087800100578006a049800d80c90001b
:102eb0000900e00004003d000a00780047f8070020
:102ec0008004780007003700090178008000eb00db
:102ed0000a007800840107000000e00001003200d1
:102ee0008a045000190c98000b00370078009000fd
:102ef00082717800060037007800900080814100e0
:102f00000204e00001003a0052c2b3008249780096
:102f10000000e800700498000000eb004f05780006
:102f20004f04be00000006001004b1000700350089
:102f30009001b100040034007000b10003003500be
:102f40009001b10001003c001000050000000500e8
:102f5000889fbe008a1f7800000478000800e00007
:102f60000d003a00e8062100700544008004eb00e3
:102f7000580078000000e00004003200f4ff070071
:102f80000000e00001003d008084eb008a0f540047
:102f9000f7ff3a002500370000002200180060000b
:102fa0008004eb0021003200a80490000f003700dd
:102fb00009015100384090000000fb0089007800b2
:102fc000acf607000000e00007003c00280090007d
:102fd0004004980060049800500c98001890a000dd
:102fe0008084eb0011003700808444004801900089
:102ff000828f5400eeff39002800900040049800b2
:103000009800780002c020000281600001003a00b0
:103010003800900001e8a30002003200600498002c
:1030200001003700500c98008004eb000900780084
:103030004f0578004f04be0000000600889fbe00c8
:103040008a9fbe0080047800010478002c003700bd
:10305000c800900068009000808f50000400390084
:1030600008007800610107000000e000370035002b
:10307000004020001800600009003200a10020007c
:103080000900780033010700800578000b00e0009c
:1030900003003200618514000a85450004003700f2
:1030a00009007800cdf70700000578008005eb00e7
:1030b00048009000e8009000808050008a8f500007
:1030c00002003100010578008005eb000a0178005c
:1030d00089007800e8f60700480090000a004000e8
:1030e000400498000b00e000040032000800780063
:1030f00097ff07000000e00014003a008a844400b3
:103100001904e000d2ff3a0000802000180060009f
:1031100006003200080078008dff0700800078006c
:103120000080eb000100e00009003a0001c020002f
:10313000988060000000eb0005003200480090001d
:10314000600498000000eb00010037000080eb00f5
:103150004f05be004f04be00000006000000e00066
:103160002f003200c0017800e38f51002c003600a0
:103170000308a3002a003a0031af80000100e000fc
:1031800002003200810f500004003100110098004d
:1031900030af8800160037008200780011019000df
:1031a0000200e00002003200800f5100faff3900f7
:1031b0001102780084824000850f50001800390009
:1031c000808f520003003a0083084200010078001b
:1031d000070037000200e0000300320083014000d6
:1031e000830f51000e0039001200980090009800e3
:1031f000900090000100e000090032001001400042
:10320000828f500006003a00425e21000009eb0068
:103210001001780011084100910090001100980001
:1032200000000600889fbe008a9fbe008c9fbe00e3
:103230008e1f7800000678000104780002007800f4
:10324000830478000881b900020778000200e000da
:10325000420032000800e0004100320082057800a0
:10326000c900900069009000808f50000400390070
:1032700009007800dd0007000000e00029003500ab
:1032800000402000190060000a0032000b017800a5
:10329000a10020000c007800930007008006780051
:1032a0000d00e00006003200610516000a854600a8
:1032b000040037000b0578008006eb0001003700a2
:1032c0000b05780049009000e900900080805000d4
:1032d0008a8f500002003100010578008006eb0063
:1032e0000a0178008c00780063f607008a85550093
:1032f000490090000a004000c00498000d00e00062
:10330000040032000900780011ff07000000e0000f
:1033100004003a000b00e000020032000a064600fa
:10332000cfff37000080200019006000020032004b
:103330000900780006ff070000c0200019006000a7
:103340000200320049009000e00498008b0557000d
:10335000110009008885d800010037000000eb004b
:103360004f0778004f06be004f05be004f04be0059
:1033700000000600889fbe000004780021af800096
:103380000100e00002003200010078000d0037006b
:1033900031af8000605e210004003700910f5400bf
:1033a000250036000180e800910090000100e00057
:1033b000faff3a0010003700920f54001e0036004a
:1033c0000280e800100178000200e000faff3a00f5
:1033d0001101780031af8000605e210004003700e9
:1033e000910f5400140036000180e8009100900015
:1033f000828f5000faff3a0069af8000888f540036
:1034000001003100880478000900780047010700b6
:103410000000e00004003a00888f540005003200ec
:103420008904d100f5ff3700091878004bff070029
:10343000d2ff37000000eb004f04be000000060082
:10344000881f7800630440000800a1008000eb00a2
:10345000800f540021003600e30f540001003e00ad
:103460004800200008007800c2ff07008000eb0041
:103470000000e0001900320090007800910178000f
:1034800064815100880f5100030031001101900048
:103490000208780007003700088140000208780021
:1034a0009101900013019800100178001109140097
:1034b00088087800100178000000eb000200e000ae
:1034c00004003200920190000300e000010032008d
:1034d0000280e80020af88008180e80001007800c9
:1034e0004f0478000000060003003700b0cf100042
:1034f000050032000201e900800178000200e000ce
:10350000faff3a0000000500030078000000060002
:10351000000178000700370086cf520002003a0011
:103520000080510000000600344378000604e000eb
:10353000f9ff3a0082017800b24278000504e00009
:103540000200320001027800f7ff370000805100ce
:10355000000006000001eb0000027800b041780096
:1035600081cf510001003a00040178000304e0001b
:10357000f9ff3a0002007800000006000001780020
:103580000800370081027800354378000604e00027
:1035900002003a000080510000000600864f5200f1
:1035a000f9ff3a0082017800324278000404e0001a
:1035b000f4ff3a00008051000000060001002000e6
:1035c0000100e00008003200010080000100e0007e
:1035d000050032008100e900010088008180400080
:1035e0000200800000b1780000000600889fbe0045
:1035f0008a1f780000047800c800900068019000dd
:103600000000eb00828f50003c0039001800780069
:103610002200290002016000e20f51000700320081
:10362000012024000000e00001003d0001202000f6
:10363000008c70000080eb00300037000200260094
:1036400002006000820f500009003a00380090002c
:10365000808f500006003900080078003cfe07000b
:10366000800078000080eb000100e00023003a00b9
:103670001805780000c020000000650018003a001e
:10368000a80490006002200008004000808f5400d1
:1036900013003a000020200069ff07002004980072
:1036a0000000e00005003a00290498004904980051
:1036b0008904e80039049800080037000a60a00077
:1036c0000a0c78004004980001202000808040000f
:1036d00031049800400c9800500c9800cd0407006d
:1036e0002800900050049800380090006004980072
:1036f00000002600180c70000000eb004f05780059
:103700004f04be0000000600000178000000eb003e
:10371000020037006a02b900048041008100e9001c
:1037200005003300b201fb000303b100e98f510033
:10373000f8ff36000080eb0000000600e487470039
:10374000889fbe008a9fbe008c9fbe008e1f78009f
:10375000904678000006eb000d04e0006c0032009b
:103760008004e800090078002800200002003700eb
:103770000000e8000804e8008d00fb00f5f50700f4
:103780000000e000faff3a006540b9002cff070096
:10379000000578000a0678000a00e0005c003200ac
:1037a0000a0478008005eb0080c2b300994f100036
:1037b0000b003a000900e80041002000d2ff07009a
:1037c00041892f00810540004e003300d940900010
:1037d00090c2b30080cf50004a003a00e684440013
:1037e0008bf79f004b4498002100200009007800cf
:1037f000c5ff07000040e90090f79f0030449800a3
:103800008984e8002100200009007800beff07003d
:103810000047e9002e4498008984e8001900fb0065
:103820000003b100e90f500006003e002100200017
:1038300009007800b4ff0700104498008984e8006c
:10384000020037000040eb00104498001ff0970082
:10385000eb4f50002b003e0030c6b300804f5700a6
:1038600028003e009840900080cf500025003e0088
:1038700019407800b1c2b300814f500005003200fa
:1038800081c0e800814f500002003200004ceb0084
:103890000f0037009940900000cdb30000c04000f9
:1038a000e64f500017003e0002c3b30082cf500025
:1038b00001003a0070c0b300004c7800b1c2b30000
:1038c00099cf100001003a00674c40008984e8005d
:1038d000194078000004e00005003a006504440047
:1038e00000cceb000ff09700404498000800370030
:1038f0008d4f500003003a00650444008904e8003d
:10390000a9ff37000a00780014fe07000006eb004c
:103910000c0078004f0778004f06be004f05be0030
:103920004f04be004f00b100000006008000780088
:103930000000eb000100e000050034000100780009
:103940002af40700e10f400001003a000000eb00fc
:1039500000000600889fbe008a9fbe000004be00d3
:1039600002057800984578000b04e0000100320061
:103970000804e8008b00fb000800780075f50700dc
:103980000000e00003003a000800780093f507000b
:10399000000044000900e00002003c00080d500057
:1039a000080037001004e00003003a00000deb00af
:1039b00000047800030037008904e9000004e800ef
:1039c000ecff3700080078004f05be004f04be0032
:1039d00000000600cf04b000889fbe008a9fbe0092
:1039e0008c9fbe008e1f780000067800814678000c
:1039f0003c00be002c01be00d0979f00e1979f00c5
:103a0000f2979f00839f9f0010c6b30080cf56009f
:103a10001200320010c4b30080cf56000f003200f5
:103a20005c0890000000e00002003d006000200003
:103a3000090037000000e00008003a0070c6b3003b
:103a400080cf56000300320070c4b30080cf560010
:103a500002003a0010002000500e98008c00780000
:103a600080fa2f000f004000d3010700e20f500042
:103a70000f003a0030002000100e98004010210086
:103a800011c6b30081cf560019003200e4c04000d7
:103a900081cf560016003200801021008140e800de
:103aa00081cf560012003a0040102100100037006c
:103ab0000000e0001400340030002000100e9800d8
:103ac000c010210011c6b30081cf5600080032009b
:103ad000e4c0400081cf56000500320000112100f3
:103ae0008140e80081cf560001003a00c01021005b
:103af000ec009000b0487800b06878001040780082
:103b000090409800a601370011c6b30081cf56003f
:103b10000300320011c4b30081cf56000e003a00fa
:103b2000ec00900002c3b300825878006106980050
:103b300082c5b30013c6b30083cf560001003a001c
:103b400082c7b3008258780061069800fc0090009c
:103b50008180e800710698000000e00005003a004e
:103b6000c0979f008001eb0022fb2f000f01410056
:103b70008701370010c6b30080cf56000600320020
:103b800010c4b30080cf56009a003a0051122100b1
:103b9000d1b79f000200370042112100d2b79f0029
:103ba0005c0890001b0220000000e00001003500ce
:103bb0008005e8000b05e8006022b8006033b8001b
:103bc0005f909700ef9097007f9197008f999700f3
:103bd0000c060700000278003c00be002c01be006d
:103be0000400e00001003d0003f0a200d0979f0018
:103bf000e1979f00f2979f00839f9f00cf919700ce
:103c0000e4815100c3979f000040eb00a0779f0024
:103c10003efb2f000f07470031003700c201200094
:103c200003002000a0fa2f000f0040003b04070013
:103c30005f909700ef9097007f9197008f99970082
:103c400090b79f00a1b79f00b2b79f00c3b79f0076
:103c5000c50607000004be00670555004240a900e4
:103c60000c003400fc0607000002be000203be0088
:103c70001fb09700afb097003fb19700cfb197004a
:103c8000d5070700d0979f00e1979f00f2979f000c
:103c9000839f9f00670747007000200005003700e2
:103ca0006f676400cc48dd004444de000884700087
:103cb000c4ccde00e00f5400e08f5c00050034004f
:103cc0000000e900e10f4000f5ff3a000100370075
:103cd0000067eb000000e900fdff3b0067074700bd
:103ce0000a00e000090034006022b8006033b80028
:103cf0005f909700ef9097007f9197008f999700c2
:103d0000c50507000000e000c4ff3c0032fb2f00a7
:103d10000f014100020757008e0178008b0f5700fa
:103d2000010034008b0178000300e0002b00350017
:103d30000040eb008e8f51000a003d0082fa2f00f8
:103d40000f01410003004100b0489000f0c0b300f3
:103d5000e7cf500003003c000040eb0001003700bb
:103d6000810178008300e90034fb2f000f0242003c
:103d70000101420012427800804f5200f8ff3200e9
:103d8000ef4f500001003a000449e8000100e00054
:103d900007003d008301e8004f9097006400400059
:103da000c0979f0022fb2f000f0141000200370047
:103db00032fb2f000f01410003007800050037009f
:103dc000e24078008100fb005fb29700e4c0780019
:103dd000017178000000e900f9ff3b005c089000e9
:103de0000000e000ea003d000300e900500e9800ea
:103df000e70037005f949700ef9497007f95970056
:103e00008f9d97006022b8006033b8000800be00a4
:103e10000a01be007b0507000000e00005003d0030
:103e20000bf0a200d8979f00e9979f00fa979f0098
:103e30008b9f9f0070592700cf9097000088b90092
:103e4000026a280013002000d20507006404500015
:103e5000c8979f0015003b0063041400c0ff2f00ab
:103e6000000464000800ea00c0979f005f9097007c
:103e7000ef9097007f9197008f9997006a13210028
:103e8000070037000808a300030032003a02be0012
:103e90002a03be00da0607000884d1006805450041
:103ea0000800e000f7ff3c001a0037000800e000bf
:103eb0001c003200c0ff2f0000046400c8979f0060
:103ec0006a1321006000b8000200200003ff2300f5
:103ed000070037000808a300030032003a02be00c2
:103ee0002a03be00c60607000884d1006805450005
:103ef0000800e000f7ff3c000002be000203be0025
:103f00005f909700ef9097007f9197008f999700af
:103f100046050700d0979f00e1979f00f2979f000a
:103f2000839f9f005c0f900060c6b30080cf560057
:103f3000040032006000200061c4b30081cf56004d
:103f400002003a00cf9097006a8040000e074000c0
:103f5000f30f5700010034003e01200000c3b300fe
:103f6000a0779f003bfb2f008f8545003500370071
:103f70005fb09700efb097007fb197008fb99700bf
:103f8000f90507000004be00680757004240a90079
:103f900010003400300607000002be000203be001d
:103fa0005fb09700efb097007fb197008fb997008f
:103fb000090707006022b80046782d007719240011
:103fc0008f060700d0979f00e1979f00f2979f0010
:103fd000839f9f00e88545008a0020000801be00fd
:103fe0000c003700a400200005002000a0fd2f00d9
:103ff0000f004000e80207005fa89700efa89700b5
:104000007fa997008fb1970004c3b3008465410076
:104010000001be00e00f5100e08f5900060034009f
:104020000a05e900e10f4500eeff3a000200370003
:1040300000c3b300806578000a05e900fcff3b007f
:10404000e88545000e00e0000d0034005f90970009
:10405000ef9097007f9197008f999700d0b79f00be
:10406000e1b79f00f2b79f0083bf9f006022b800b6
:104070006033b800e80407000000e000bcff3c002b
:1040800031fb2f008f804000818555004f919700b4
:1040900067004100c0979f00020037008b05e900d0
:1040a0000000e900010178008200780003c3b3003a
:1040b000b1cf1100f9ff3200c0979f00dc099000da
:1040c00061c6b30081cf56000300320061c4b30063
:1040d00081cf560002003a000000e80009003700d6
:1040e0001000200051c6b30081cf560005003200f9
:1040f0000d40780050c4b2000080fb000000e900d1
:104100004f00de00830140008b8f5100010034001e
:104110008b0178000300e0001d00350000c3b300f0
:104120008b8f510006003d0062c27900694040005b
:1041300041c3b300814f520001003c006940500070
:104140008300e9008100410001003700840178000c
:104150000302e90001037800a142780080cf5200f9
:10416000faff320091c3b300814f500001003a00c2
:10417000054be8000400e00005003d000201e900f5
:104180008301e8004f9297000402e800c4979f0063
:104190004f9297008d4078000c0078005a0307007a
:1041a0004f0778004f06be004f05be004f04be000b
:1041b000cf04b10000000600889fbe000004780014
:1041c000e68440001900d0004500de00f27f2000a8
:1041d000820f500010003a00000ceb0099047800a8
:1041e0006f816400200020001b003a002101900034
:1041f0000200e00018003a00110190000200e00007
:1042000015003a00100020001100e00012003200fa
:1042100020002000100037000000e00004003a00f9
:1042200001007800710207000000e00008003c0077
:10423000f20028001901610001fe2300810c7100c9
:1042400021c02f00010c40000080eb00020037006d
:10425000000ceb000000eb004f04be000000060065
:10426000fc874700889fbe008a9fbe008c9fbe00cf
:104270008e1f78000006780080c5b30080cf500004
:104280000a0032007740400080cf50000a00320020
:104290006940400080cf50000b0032007044210084
:1042a00080bf9f00ae0020000a003700624321005b
:1042b00082bf9f00060037007344210083bf9f0028
:1042c0008e002000030037007444210084bf9f004b
:1042d0000e0120003c02be002c03be000605be00fd
:1042e0000404be0040c6b30080cf5000030032007b
:1042f0006540400080cf50000b003a00e00f5200b4
:10430000e08f5a00e00f5b00e08f5b0006003d008d
:104310006000b8006011b8000404500085845800a3
:104320000605590087855900e80f57000400320040
:1043300040002000f00f570038003a00010037001d
:1043400030002000e00f5400e08f5c00e00f5d00c3
:10435000e08f5d0004003a00dc0890008d01200031
:104360000100e000060032008e00e9008880600055
:104370008fba9700e5c07800f1ef9f007d01200023
:10438000800078008100e900050033008b05d10032
:104390000a85d3008984d3000884d300f9ff37004d
:1043a000089ebe000a96be00120037008d06e90086
:1043b0008e00e900848060000fb99700e2c17800a8
:1043c00082fd2f000f01410003f17e008000780084
:1043d0008100e900050033008783d1000683d30004
:1043e0008582d3000482d300f9ff3700049ebe000b
:1043f0000696be003c02be002c03be00e00f520039
:10440000e08f5a00e00f5b00e08f5b008b00340010
:104410000d00e000e5ff3c00880037002c609000b4
:1044200081c6b300814f50000b00320006003c00f3
:104430000004e00008003200e6c05000814f500048
:104440004e003a0004003700c1c6b300814f50004f
:104450004a003a00210037000800e00004003a005a
:104460005c0890008d0120000000e0000600320092
:10447000110009000e84d8000fb99700e2c078003f
:10448000f1ef9f007d012000110009000e84d8008b
:104490000a003700110009000e04d8008d06e9005b
:1044a0000e81b900020454008fb8970061417c006e
:1044b00081fd2f008f80400082f07e000004780094
:1044c0000800e000020032000d00e000f1ff3c00b7
:1044d000cfc4de00614db90025003700e00f540065
:1044e000e08f5c0004003a005c0890008d01200021
:1044f0000000e000070032006171b9000800be0052
:10450000bbf107008fb99700e3417800f3ef9f00fc
:104510007d0120006171b9000800be00a4f1070010
:104520000b0037006171b9000800be0019040700d4
:104530008d06e90000f1b900020454000fba97009b
:10454000e4427c0084fd2f000f02420005f27e0051
:104550000004be00e00f5000e08f5800020032005f
:104560000d00e000efff3c004fcdde008a05780033
:10457000089ebe000a96be0030003700e00f5400cf
:10458000e08f5c00e00f5d00e08f5d0004003a000a
:104590005c0890008d0120000000e000090032005e
:1045a0006172b900612bb9000800be000a01be00ab
:1045b000310607000fba970064427800f4ef9f00bd
:1045c0007d0120006172b900612bb9000800be00b6
:1045d0000a01be00210607000d0037006172b90014
:1045e000612bb9000800be000a01be0026060700c4
:1045f0008d06e90000f2b900040454008fba970058
:1046000065427c0085fd2f008f82420084f27e008f
:10461000009ebe000296be003c04be002c05be00fb
:10462000e00f5400e08f5c00e00f5d00e08f5d0064
:10463000020034000d00e000e8ff3c00e80f5700e6
:1046400010003a000c1090000038a3000d0032005a
:10465000f78f560006003e0085fd2f008f82420036
:10466000e5c07e0000c3b30080cf500005003200db
:104670008d06e90002c3b30081fd2f008f8040004a
:1046800082f07e0078811600120e98006c00900077
:1046900083fd2f008f8141008d80410076f107005e
:1046a0001c089000dc089000810f500006003d00bf
:1046b00000805000000e98000c1090000040a100f7
:1046c000001698000f0037000100e0000d003d00cb
:1046d0008c109000f4806000f08f500009003a00c8
:1046e0007c099000fc009000810051000c099000b2
:1046f00082805000008050004240a9000100340038
:10470000000e98004f0778004f06be004f05be0010
:104710004f04be00cf01b100000006000400fa0003
:10472000889fbe008a9fbe008c1f7800000478001e
:1047300001067800f80d9000780090008085550003
:104740000808900080855500180890008085550065
:104750002808900080855500380890008085550015
:1047600048089000808555000002220090bf9f00fd
:1047700000032300a0bf9f00081090000028a300a2
:1047800015003a000b00e000130034000b05780020
:104790008a047800e20f550001003600290020004d
:1047a000c801900009017800ee8057005800900081
:1047b00003000100500498000000e0008c0032006b
:1047c0006808900009004000600c98000905550039
:1047d0004240a900eeff3c00780190000200e0009a
:1047e0000c003400c80190008c0078005800900044
:1047f00003000100500498008080eb000000e000fe
:104800007c003200e80890007800900000804000b2
:10481000600c9800880c90000900e0001100340042
:1048200009057800e28f5400010036002a002000bc
:10483000c80190000a017800ec80570058009000f1
:1048400003000100500498000000e00068003200fe
:10485000680890000a004000600c98008a845400a8
:10486000edff3700180990000200e0000c00340052
:10487000c8019000e800900058009000030001007b
:10488000500498008080eb000000e00059003200e6
:10489000e80890001808900000804000600c980024
:1048a000a80c90000900e000110034000905780010
:1048b000e28f5400010036002a002000c801900059
:1048c0000a017800ec8057005800900003000100b6
:1048d000500498000000e000450032006808900095
:1048e0000a004000600c98008a845400edff3700f5
:1048f000380990000200e0000e003400e80090004b
:104900001808900080804000c80190005800900076
:1049100003000100500498008080eb000000e000dc
:1049200034003200e8089000380890000080400011
:10493000600c9800c80c90000900e00011003400e1
:1049400009057800e28f5400010036002a0020009b
:10495000c80190000a017800ec80570058009000d0
:1049600003000100500498000000e0002000320025
:10497000680890000a004000600c98008a84540087
:10498000edff3700081090008000eb000028a30026
:10499000180032000b00e000160034008b04780091
:1049a00009057800e28f5400010036002a0020003b
:1049b000c80190000a017800ee805700580090006e
:1049c00003000100500498000000e00008003200dd
:1049d000680890000a004000600c98008a84540027
:1049e0004240a900eeff3c008000eb0001003700d0
:1049f0008080eb00010078004f0678004f05be0074
:104a00004f04be000080fa0000000600c05a2200d9
:104a1000eafa3700881f7800e85e21001804e000f9
:104a200003003a00f9ff070020c0b300004c7800f3
:104a30004f04780000000600889fbe000004780044
:104a40000800780042f90700800478000004200084
:104a5000180060000200320028009000bff9070033
:104a60000000eb0020049800384090000004e000b3
:104a7000050035000000fb00a63407000000e00040
:104a8000010032008084eb00181090000000e0006c
:104a900008003200ccef07000000e0000100320007
:104aa0008084eb0018109000acf907000000eb00c8
:104ab0001014980000082000180060001500320053
:104ac0000001eb006000b800030721000202d000e3
:104ad00063027a00880f520005003a00000040008f
:104ae00081804800008041000008eb00060037008c
:104af00061004000e08048000201e800e80f50003b
:104b0000e08f5800f0ff3a000800780093f90700a2
:104b10000e003700000c780000c0eb003044980015
:104b20006002200008004000200498004004980023
:104b300050049800400c980060049800500c9800b5
:104b40007004980076004400000c9800090078007a
:104b50004f04be0000000600881f78000004eb0030
:104b60006140b800e2ff2f00f3ff2f001c04070094
:104b7000e2072100620078000000e000010032003e
:104b8000adff07000804e800e80f5400f4ff3a0006
:104b90004f04780000000600881f78008a9fbe003e
:104ba0008c9fbe00000478000205be000406be0013
:104bb0000401be000a00be0076020700008cbe00a1
:104bc0000c01be00060407000005550081855d004c
:104bd0002a0498003b049800080078004f06be00a5
:104be0004f05be004f04780000000600e6004000bc
:104bf0001101780005002800850261006f01610045
:104c000082087800020032001200200011003700f4
:104c1000a0019000120020000300e0000d003a0007
:104c2000900190000300e0000a003a001000e0004c
:104c300008003a0036003700640340009608780008
:104c400080017800530b7800900978000408780000
:104c500070015100110278000400e000f6ff3200fc
:104c60001300370064024000140378004f33de0065
:104c7000838141008308730080017800d3037800aa
:104c8000cf3bde001403780006034300068a73005e
:104c90001302780004024200100378004f33de0054
:104ca0008609720090017800038841000201e90042
:104cb00091017800ef8f5100eaff360010003700b5
:104cc00080017800530378004f33dd001002d100db
:104cd000040873006402400094037800cf3bdd00b9
:104ce0001303d10086897300110378004f33dd0070
:104cf0009401d100030a73009108d1000201e80079
:104d000091017800ff8f5100edff3e00ef886100b8
:104d10009188720002007800000006000400fa008a
:104d2000889fbe0000047800e60444001900780063
:104d30008000d000c508de00f47f2000848f500082
:104d40000e003a00ef006000200020006b003a00e7
:104d5000a80090000100e00068003a009800900070
:104d60000100e00065003a00100020001800e0009b
:104d70006200320020002000600037000100e000e7
:104d80000a003a0008007800c2bf9f00d3bf9f000e
:104d900096ff0700800078000000eb004fb99700f5
:104da000dfb997000100e00054003c004f88de00ae
:104db0000281400083014800e07f2000800f510005
:104dc000e08f59000d0034001900e00004003d00a0
:104dd0006000b8000200200003ff2f00030037002e
:104de0006000b8000200200003ff2700009cbe0006
:104df0000294be001000200040003700e00f510078
:104e0000e08f5900050034004411dd00f000280057
:104e100019006000800c710037003700190078001d
:104e200004002800040260006f0060000040a00041
:104e3000800c7800d0fc2f00f1ff2f00800f510074
:104e4000818f590006003d00840c78000000eb00c3
:104e50002004980010049800000ceb002700370095
:104e60006f0141000600370008007800500c780000
:104e7000e40044001108780099087800800ceb00e9
:104e8000700051007001410001fe2f00828040003f
:104e9000ef8f4000f4ff35000000ea0015003200fb
:104ea0008800780070011000d1027800822add00ad
:104eb000980178008019de00038c720064044400bd
:104ec00098027800822add00910178008019de00c6
:104ed00083887200990078000209dd00980078004c
:104ee0008008de00010c7100990078000008de00e7
:104ef000800c7800990c72000080eb004f04be001b
:104f00000080fa0000000600f0874700889fbe007e
:104f10008a9fbe008c9fbe008e1f78000004780020
:104f2000814478000205be00040678000b00e00012
:104f300002003c001b0020000a5f210060c6b30095
:104f400080cf54000e00320060c4b30080cf540004
:104f50000b00320070c6b30080cf54000300320053
:104f600070c4b30080cf540099003a00e40f4600ab
:104f70007f00350058089000800f56007c003d00ef
:104f80000c06e80060c6b30080cf54001000320069
:104f900060c4b30080cf54000d00320008109000b0
:104fa0000038a30004003a0058089000808f550094
:104fb00001003d005b0c9800580890000c00500068
:104fc000500c980002003b000000eb00500c9800d1
:104fd00018089000e80090000c00e00026003c005b
:104fe00002c3b300827078000000e800100c980043
:104ff000d80890000100e00003003c0088109000f9
:105000000138a30005003200e8009000e2c2b300be
:10501000827078000000e800100c9800580890009a
:105020008c00ea00810f500001003d000006ea00fc
:105030008c00ea00210c9800000646005c0c9800e9
:105040008b0f5600010034000b0678003c0c9800d2
:10505000e800900018089000008040000c017800e3
:105060008a00780004ef0700580890000c065000f2
:105070004c0c9800be0037008c8f550018003d0086
:10508000008040000b0178008a007800faee0700eb
:105090001808900000804500100c98008b05560001
:1050a0002b0c9800d80890000100e00003003c00a1
:1050b000881090000138a30006003200e80090003c
:1050c000e2c2b30082707800380890000000e80067
:1050d000300c980058089000400c9800a40037004d
:1050e000008040000c0178008a007800e2ee0700a2
:1050f0001808900000004600100c98008c855500a0
:10510000d80890000100e00003003c0088109000e7
:105110000138a30005003200e8009000e2c2b300ad
:10512000827078000000e800100c98005808900089
:10513000808f55000100340080057800e800900061
:1051400018089000008040008c0045000b0178009a
:10515000c9ee0700180890000b004000100c9800e2
:10516000580890008b0550002b0c980080003700e9
:1051700070c6b30080cf54000300320070c4b30087
:1051800080cf540012003a0058089000808f5500dc
:1051900004003d00081090000038a30001003a0010
:1051a0005b0c9800580890000000e900500c980033
:1051b00002003b000000eb00500c980070c6b300ea
:1051c00080cf540009003a0059c6b3000c003700e4
:1051d00010c6b30080cf54000600320010c4b300e4
:1051e00080cf540006003a000400370059c4b300d1
:1051f0000300370009c7b3000100370009c5b30039
:1052000018089000e80090009a7078000000e8000c
:10521000100c9800d80890000100e00003003c004a
:10522000881090000138a30005003200e8009000cb
:10523000e2c2b300827078000000e800100c980011
:10524000580890000000e000100034008b05e900d1
:10525000808f55000100340080057800e800900040
:1052600018089000008040008a00e8000b017800d8
:1052700081ee0700180890000b004000100c980009
:10528000580890008b0550002b0c9800e800900007
:105290001808900000804000095878000005e800d8
:1052a0000c00e00004003500b1c2b30001487800f2
:1052b0008a06780004003700d1c2b30001487800a4
:1052c0008a0678000c06ea00fd8557000007eb000f
:1052d00009003700a20020008c007800728057007f
:1052e0003b0007007fb097008fb89700816d780072
:1052f000000678000e07e8000c00e000f5ff3c0017
:10530000e10f570013003c0050c6b30080cf54009b
:105310000300320050c4b30080cf540003003a00b1
:105320008a06780000c3b300805e78000e00e000bb
:1053300008003a0000c3b300805e78000500370023
:105340000e07e900fc80570061407f0002c3b300f4
:10535000825e40000e00e000f9ff3c00e800900093
:105360001808900000804000808656003d0c980090
:105370000810900074006000f00f50000e003a001a
:10538000980890007800900000804000a8089000e5
:1053900001004000b808900001004000c8089000db
:1053a00001004000f8089000810f500002003d000d
:1053b00000805000000c98004f0778004f06be0098
:1053c0004f05be004f04be000f01b10000000600f3
:1053d0008002780001037800110009000203d80060
:1053e00080017800830a78000299b9000201530015
:1053f00092029800050078000000060000c0da0064
:10540000000006008f1fd100770307008f87e90097
:105410000000e00000000600809feb007203070020
:105420008f87e9000000e000000006002800fa0075
:10543000889fbe008a9fbe008c9fbe0003866b00c3
:105440008f0007006400e100440032006408e100be
:105450004a0032006100e100460032006108e100cc
:1054600049003200ec0647006000b8003d02be0073
:105470003d03be00f48657006011b8003d04be0035
:105480003d05be007d0320000b0037000000a0009a
:105490008d06e900130032000402420085824a00b2
:1054a00006034b0087834b000000400081804800ca
:1054b00002014900838149000802520089825a0092
:1054c0000a035b008b835b00f0ff3b000802420095
:1054d00089824a000a034b008b834b008d06e9004a
:1054e000edff3a008482720086827200f707b200f4
:1054f0008782720001003200150020001e04900017
:105500003e0b900006035400e63fb0000368a30082
:10551000070032000000a7000500a0008301d100b1
:105520000281d3008180d3000080d3000603e8000d
:105530008301d1000281d3008180d3000080d30099
:105540000002eb000482d2002100070003f0a1005a
:105550000cf0a70003f0a0005d00370064024700d4
:105560006408e100570032003400be003401be0080
:10557000f6ff37006108e100520032006011b80008
:105580006000b800f1ff370003ff27000200200091
:10559000fbff3700839f68000100e00002003d0030
:1055a00060001000e08018000300e00002003d00f1
:1055b00060011100e08119007ded07004f00e0005f
:1055c00002003b0060001000e080180000000600b0
:1055d0001800200057002000080453000d003d0073
:1055e0000600200097fc2f000740e1001e00340059
:1055f00084827200610260008301d1000281d300c5
:105600008180d3000080d3000804e800f8ff3a004e
:105610004700200061046000050474000404640075
:105620000d00320061004000e08048006001490048
:10563000e081490003b8a500070032000603e80036
:105640006538e10004003a008301d1000281d300f3
:105650008180d3000080d300f87f20000830e10073
